{
  "_format": "hh-sol-artifact-1",
  "contractName": "Swapper",
  "sourceName": "contracts/Swapper.sol",
  "abi": [
    {
      "inputs": [
        {
          "internalType": "address",
          "name": "_routerAddress",
          "type": "address"
        }
      ],
      "stateMutability": "nonpayable",
      "type": "constructor"
    },
    {
      "inputs": [
        {
          "internalType": "address",
          "name": "_tokenOut",
          "type": "address"
        },
        {
          "internalType": "address",
          "name": "_receiver",
          "type": "address"
        }
      ],
      "name": "swapETHForTokens",
      "outputs": [],
      "stateMutability": "payable",
      "type": "function"
    },
    {
      "stateMutability": "payable",
      "type": "receive"
    }
  ],
  "bytecode": "0x608060405234801561001057600080fd5b5060405161089e38038061089e833981810160405281019061003291906100db565b806000806101000a81548173ffffffffffffffffffffffffffffffffffffffff021916908373ffffffffffffffffffffffffffffffffffffffff16021790555050610108565b600080fd5b600073ffffffffffffffffffffffffffffffffffffffff82169050919050565b60006100a88261007d565b9050919050565b6100b88161009d565b81146100c357600080fd5b50565b6000815190506100d5816100af565b92915050565b6000602082840312156100f1576100f0610078565b5b60006100ff848285016100c6565b91505092915050565b610787806101176000396000f3fe6080604052600436106100225760003560e01c80637f54a3691461002e57610029565b3661002957005b600080fd5b610048600480360381019061004391906102f8565b61004a565b005b6000600267ffffffffffffffff81111561006757610066610338565b5b6040519080825280602002602001820160405280156100955781602001602082028036833780820191505090505b50905060008054906101000a900473ffffffffffffffffffffffffffffffffffffffff1673ffffffffffffffffffffffffffffffffffffffff1663ad5c46486040518163ffffffff1660e01b8152600401602060405180830381865afa158015610103573d6000803e3d6000fd5b505050506040513d601f19601f82011682018060405250810190610127919061037c565b8160008151811061013b5761013a6103a9565b5b602002602001019073ffffffffffffffffffffffffffffffffffffffff16908173ffffffffffffffffffffffffffffffffffffffff1681525050828160018151811061018a576101896103a9565b5b602002602001019073ffffffffffffffffffffffffffffffffffffffff16908173ffffffffffffffffffffffffffffffffffffffff1681525050600061012c426101d49190610411565b905060008054906101000a900473ffffffffffffffffffffffffffffffffffffffff1673ffffffffffffffffffffffffffffffffffffffff16637ff36ab53460008587866040518663ffffffff1660e01b81526004016102379493929190610566565b60006040518083038185885af1158015610255573d6000803e3d6000fd5b50505050506040513d6000823e3d601f19601f8201168201806040525081019061027f9190610708565b5050505050565b6000604051905090565b600080fd5b600080fd5b600073ffffffffffffffffffffffffffffffffffffffff82169050919050565b60006102c58261029a565b9050919050565b6102d5816102ba565b81146102e057600080fd5b50565b6000813590506102f2816102cc565b92915050565b6000806040838503121561030f5761030e610290565b5b600061031d858286016102e3565b925050602061032e858286016102e3565b9150509250929050565b7f4e487b7100000000000000000000000000000000000000000000000000000000600052604160045260246000fd5b600081519050610376816102cc565b92915050565b60006020828403121561039257610391610290565b5b60006103a084828501610367565b91505092915050565b7f4e487b7100000000000000000000000000000000000000000000000000000000600052603260045260246000fd5b6000819050919050565b7f4e487b7100000000000000000000000000000000000000000000000000000000600052601160045260246000fd5b600061041c826103d8565b9150610427836103d8565b925082820190508082111561043f5761043e6103e2565b5b92915050565b6000819050919050565b6000819050919050565b600061047461046f61046a84610445565b61044f565b6103d8565b9050919050565b61048481610459565b82525050565b600081519050919050565b600082825260208201905092915050565b6000819050602082019050919050565b6104bf816102ba565b82525050565b60006104d183836104b6565b60208301905092915050565b6000602082019050919050565b60006104f58261048a565b6104ff8185610495565b935061050a836104a6565b8060005b8381101561053b57815161052288826104c5565b975061052d836104dd565b92505060018101905061050e565b5085935050505092915050565b610551816102ba565b82525050565b610560816103d8565b82525050565b600060808201905061057b600083018761047b565b818103602083015261058d81866104ea565b905061059c6040830185610548565b6105a96060830184610557565b95945050505050565b600080fd5b6000601f19601f8301169050919050565b6105d1826105b7565b810181811067ffffffffffffffff821117156105f0576105ef610338565b5b80604052505050565b6000610603610286565b905061060f82826105c8565b919050565b600067ffffffffffffffff82111561062f5761062e610338565b5b602082029050602081019050919050565b600080fd5b61064e816103d8565b811461065957600080fd5b50565b60008151905061066b81610645565b92915050565b600061068461067f84610614565b6105f9565b905080838252602082019050602084028301858111156106a7576106a6610640565b5b835b818110156106d057806106bc888261065c565b8452602084019350506020810190506106a9565b5050509392505050565b600082601f8301126106ef576106ee6105b2565b5b81516106ff848260208601610671565b91505092915050565b60006020828403121561071e5761071d610290565b5b600082015167ffffffffffffffff81111561073c5761073b610295565b5b610748848285016106da565b9150509291505056fea2646970667358221220e625de2efe2bc431daf5b89d570872c8ad25dfeb6347ece62ec2df4c94cd4dbb64736f6c63430008110033",
  "linkReferences": {},
  "deployedLinkReferences": {}
}